:020000000C945E
:100002002B010C941C030C946D030C9400000C94B3
:1000120000000C9400000C9400000C9400000C945E
:1000220000000C9400000C9400000C9400000C944E
:1000320000000C9400000C9400000C9400000C943E
:1000420000000C9400000C9400000C9400000C942E
:1000520000001027E80364000A00010000100001FC
:10006200100001000000596F7520456E74657265BD
:10007200643A20256400596F7520456E7465726577
:10008200643A202A00596F7520456E746572656462
:100092003A202A256400596F7520456E7465726591
:1000A200643A202A2A00596F7520456E746572657C
:1000B200643A202A2A256400596F7520456E7465BA
:1000C2007265643A202A2A2A00596F7520456E7497
:1000D200657265643A202564256400596F75204570
:1000E2006E74657265643A20256425642564002077
:1000F20020446F6F72204F70656E65640057656CA7
:10010200636F6D6500536D617274204C6F636B0099
:100112005072657373202A20746F20656E74657245
:100122000020456E74657220796F757220494420F3
:10013200210048692C20416D722E0020456E7465A5
:100142007220796F75722050432100596F75206DAE
:10015200617920456E7465722E002057726F6E674A
:100162002050617373776F7264200048692C416874
:100172006D65642E0048692C204164656C2E004830
:10018200692C204F6D61722E0048692C2050726FCD
:10019200662E482E002057726F6E67204944200059
:1001A2005072657373202A20746F207374617274A5
:1001B2000041646D696E204163657373005265711D
:1001C2007565737465640020456E746572204164C0
:1001D2006D696E205043202100456E746572205374
:1001E200747564656E742049440020456E746572AE
:1001F200206E6577205043202100504320636861C0
:100202006E676564202121002057726F6E6720504F
:1002120043200020456E746572206F6C6420504349
:1002220020210052652D656E746572206E657720FF
:100232005043202100436F6E746163742041646DEA
:10024200696E000080C001000400660002006001C7
:1002520046020000F894EE27ECBBF1E0FBBFEBBFD7
:10026200E5BF8DE0A2E0BB27ED938A95E9F780E038
:1002720094E0A0E6ED930197E9F7E8E4F2E08591D6
:100282009591009761F0A591B59105901590BF01E8
:10029200F00105900D920197E1F7FB01F0CFEFE538
:1002A200EDBFE4E0EEBFC0E6D1E00C942102D898A5
:1002B200D99ADA9ACB9904C0CB9BFECFE1E008959C
:1002C200CC9904C0CC9BFECFE4E00895CD9904C044
:1002D200CD9BFECFE7E00895CE9904C0CE9BFECF22
:1002E200EAE20895D89AD998DA9ACB9904C0CB9BBE
:1002F200FECFE2E00895CC9904C0CC9BFECFE5E0AE
:100302000895CD9904C0CD9BFECFE8E00895CE9923
:1003120004C0CE9BFECFE0E00895D89AD99ADA982D
:10032200CB9904C0CB9BFECFE3E00895CC9904C0E7
:10033200CC9BFECFE6E00895CD9904C0CD9BFECFC5
:10034200E9E00895CE9904C0CE9BFECFE3E2089582
:10035200AECFFDD41A2F2C813D81E199FECF3FBB58
:100362002EBB1DBBE29AE19AF9D4269608951A9300
:100372000A938D01E199FECF1FBB0EBBE09AEDB34C
:1003820009911991089516D425D4E8E7F0E026D40E
:100392008E2E3DD2E7E8F0E0FA93EA9325D42AD4F0
:1003A200E8E9F0E01BD4BE2E32D2E8EAF0E0FA939C
:1003B200EA9324D41FD4EAEBF0E026D417C0FAD390
:1003C20076DF8E2E24D2EBECF0E024D488E0A2D3A8
:1003D2002A966DDFBE2E1BD2EDEDF0E01BD40ED4BB
:1003E2008CE098D32E96A0EDB7E0E0D4A92DE4E6F8
:1003F200EA9FB001A82DEAE0EA9FF001DB01AE0F0F
:10040200BF1FEB2DF0E0EA0FFB1F3F01E92DE82DA6
:10041200EB2D0895C09AC39AA4EFB1E0C7D4C09857
:10042200C398A4EFB1E0C2D40895F1D1C29AC19A9F
:10043200F9D3E1EFF0E0FAD3FFD3C198C29808955F
:10044200E7E0EABBE8EFEBBBB89AB99ABB9ABA9A73
:10045200A0E100D2EFE6F0E0FA93EA93ABEC79DFA9
:10046200EEE7F0E0FA93EA93ABE773DFE0E8F0E05F
:10047200FA93EA93ABE36DDFE2E8F0E0FA93EA93F2
:10048200AFED67DFE4E8F0E0FA93EA93A7E161DF1A
:10049200E5E0EA93E0E0EA93EFEFF0E0C7D3D0D3F0
:1004A200E7E0F1E0C3D3C8D3E5B7E260E5BFE5B763
:1004B200E160E5BF7894EBB7E064EBBFE5B7E460D9
:1004C200E5BFE5B7E860E5BF7894EBB7E068EBBF5E
:1004D200A9D3E2E1F1E0AAD3EADE5E2EEAE2E51573
:1004E20009F0A1C0B2D3B7D3E1E0E41509F09AC094
:1004F2004ADFF301E038A0E0FA07D1F488D1E4E35F
:10050200F1E082D39DD3EDE3F1E090D33CDFE62D21
:10051200AE2EA0E8B0E02BDFEA1519F4A0D3A3D3E6
:1005220002C0A5D377DFA8EEB3E040D4442479C05B
:10053200EE37A0E0FA07E1F46AD1EDE6F1E064D328
:100542007FD3EDE3F1E072D31EDFA62CA0EDB7E07E
:100552002DD4AEE7B0E00BDFEA1519F480D383D3D4
:1005620002C085D357DFA8EEB3E020D4442459C09B
:10057200E238A0E0FA07D1F44AD1E7E7F1E044D348
:100582005FD3EDE3F1E052D3FEDEE62DAE2EA2E81C
:10059200B0E0EDDEEA1519F462D365D302C067D389
:1005A20039DFA8EEB3E002D444243BC0E438A0E033
:1005B200FA07D9F42CD1E1E8F1E026D341D3EDE3F7
:1005C200F1E034D3E0DEE62DAE2EA4E8B0E0CFDEDB
:1005D200EA1519F444D347D303C049D31BDF1ADF0A
:1005E200A8EEB3E0E3D344241CC0EF36A0E0FA0740
:1005F200A9F40DD1EBE8F1E007D322D3EDE3F1E06A
:1006020015D339D319F42BD32ED303C030D302DF41
:1006120001DFA8EEB3E0CAD3442403C034D3FADE28
:1006220036D362CF06C0F3D0E2EAF1E0EDD2F2DED9
:1006320012D34ECFFFCF2FD31A930A93E8D0E1E023
:100642004E2EF0D2E3EBF1E0F1D2E4E0EA93E1E006
:10065200EA93EFEBF1E0EAD2EFD2E9ECF1E0D4D2A7
:10066200FAD2E1E0E415A9F506D371F5D0D0EBEDAD
:10067200F1E0CAD288DE8301A8EEB3E097D319D3A2
:1006820021F0EE37A0E0FA0709F404C0E038A0E058
:10069200FA0709F404C0E238A0E0FA0709F404C03A
:1006A200E438A0E0FA0741F409D3D5D20BD30ED334
:1006B200D2D24424ACD007C0AAD0EAE0F2E0A4D25D
:1006C200A9DEA8DEE4D204C0DED2A4DEA3DEDFD23D
:1006D200C8CF0991199158C0DED239D3B6D2BBD254
:1006E20052DE8301E6D221F0EE37A0E0FA0709F4E8
:1006F20004C0E038A0E0FA0709F404C0E238A0E040
:10070200FA0709F404C0E438A0E0FA07B9F5D80101
:100712002EDEAE2E7CD0E5E1F2E076D29CD24FDE28
:10072200F301AFEFB0E02BD39F0171D0EA2DD901D5
:10073200F0E0EA17FB07E1F4C1D2A8EEB3E036D34A
:10074200C1D2E5E2F2E060D2A8EEB3E02FD337DE09
:10075200E62DDE2E5CD0AD1411F4B8D203C0BDD2AA
:1007620059DE58DEA8EEB3E021D351D0442405C0AF
:10077200B4D250DE4FDE6FD2442404C084D24ADEAB
:1007820049DE85D2EBD22496E991EFBFF991E99146
:10079200B991A9919991899179916991F990199059
:1007A200099018951A931A2FE5B3EF70AE2FE12F27
:1007B200E07FEA2BE5BB8DE08A95F1F7AA9A8DE0FE
:1007C2008A95F1F7AA988DE08A95F1F76DC0AA9300
:1007D200A881E8DFE881E295E883A881E3DF85E884
:1007E2008A95F1F7219608951A930A931A2F0A818E
:1007F200E12FF0E0E05AFE4FE081E00FAE2FE7DF9D
:10080200C02E109364011981088123960895A2E0F5
:1008120068D2ACE0DCDFA1E064D2E0E0E093640106
:10082200CE2E08951A931A2F1A3021F0E091650105
:10083200CE1650F0E0E0EA93A0916401AF5FA0937E
:100842006401D2DF1A3081F1C394A89AA12FBFDFCD
:10085200A8982AC01A931A2FE4B3E06FE4BBA29AB5
:10086200A09AA19AAA98A898A99810936501E12F35
:10087200E058E0936201E12FE054E0936301A4E1C8
:10088200B0E094D232D231D230D2A0E28BDF88EC07
:1008920090E00197F1F7A8E29ADFA4E098DFA5E8DB
:1008A20096DFA6E094DFB3DF19910895BA93AA9375
:1008B20026974BD210E0AC85BD85E0E0F0E0ED93E9
:1008C200FC93EA89FB893196EA8BFB8B3197E491A1
:1008D2002E2FE03009F409C1E12FE03031F4253246
:1008E20011F411E001C008D2FFC0E130A1F42532B9
:1008F20011F402D2F8C012E040E000E02D3211F40F
:1009020001E0F2C02B3211F44BE2EEC0203211F4BE
:1009120040E2EAC002C0E23039F450E013E0203392
:1009220011F40068E1C003C0E33009F0DDC02033F8
:1009320010F02A3308F007C0AAE05A9F502DE22F88
:10094200E0535E0FD1C0E22FE33639F4DCD1E889FF
:10095200F989A481AA93DDD1C6C0E33729F4D3D1A2
:10096200DED10FD11E2F07C0E03749F4CCD1D7D149
:1009720014D11E2F086002600F7730E038C0E436D1
:1009820011F0E93611F4046002C0E53731F4E4E510
:10099200F0E0EE83FF8315E00CC0E83511F4086047
:1009A20003C0E83709F09FC0EEE5F0E0EE83FF8375
:1009B20014E002FF15C0A7D1A889B9891496ED9158
:1009C200FD91EA87FB87AB85AA2322F4D4D1EA877B
:1009D200FB874DE2403011F01F5F01C00B7F07C063
:1009E20092D1A889B9891496D4D1EA87FB8700FDF0
:1009F20010C0151770F407FF08C002FF04C00B7F78
:100A0200242F115001C020E301C020E275D15150C2
:100A1200F0CF312F01FF16C0303099F003FF06C02E
:100A2200EE81FF812591EE83FF8305C0AE81BF81F8
:100A32002D91AE83BF8360D1503009F051503150B7
:100A4200EBCF48C020E3EE81FF81A7D1E887F98789
:100A5200EE81FF813296EE83FF83E885F985AA85D0
:100A6200BB85AE17BF0750F02F5FA885B985EA8511
:100A7200FB85EA1BFB0BEA87FB87EFCF2A3328F0C3
:100A820003FF02C0295F01C0295D04FD19C02133A3
:100A920020F4A885B985119709F409C0531710F0FD
:100AA20000FF01C011C020E207FF0AC020E300617D
:100AB20002FF06C00B7F4A932CD1503009F05150EF
:100AC2001BD1503009F051503150A885B985129789
:100AD20008F0B8CF00FF07C0503029F05150E0E2D3
:100AE200EA9317D1F9CF10E0ECCEAC85BD85ED913C
:100AF200FD9132D1649608952AD18D013C81A32FB4
:100B020091DED801ED91FD913196FE93EE9326D1BF
:100B120025960895FF92F82E26971A930A93DE01DE
:100B2200149625D18D01E0E0EC83ED83EE83EF8313
:100B3200DE011896FED0DE011896B8DE1981088112
:100B42002896FF900895FF92F82E269700D1FE0175
:100B52000AD134852585DE01169609D18D01E0E0A2
:100B6200EE83EF83E887E9872A93A32F3DDEDE0138
:100B72001A96DFD0DE011A9699DEF0D02A96FF90FF
:100B82000895BA93AA93A991B991EE27FF276D917F
:100B9200662311F03196FBCF0895BA93AA93AA2740
:100BA200BB27E991F9910590002011F01196FBCF36
:100BB200FD0108957CDB9E2E2ADEE8E6F0E0FA9342
:100BC200EA93E92DFF2766277727EBD084E0A2DF9F
:100BD20026960895AAEFB0E0E9D019CEFA93EA93E7
:100BE20080E098DF229663CBE82DFF2766277727E0
:100BF200D8D0089584E08EDF2696ECCFEB2DFF2728
:100C020066277727CED00895FA93EA9380E082DFB1
:100C120022960895FA93EA93E92DFF27662777270C
:100C2200C0D0E2CFE0E0EA93EA930895FA93EA9320
:100C320080E089DF24960895A0EDB7E0B7D0E7CD34
:100C4200E0E0EA93E1E0EA930895E1DDE1E04E2E8F
:100C5200E3E2F1E0D9CFA8EEB3E0A8D0D8CDD7DD5A
:100C6200EDE4F1E0D1CFA8EEB3E0A0D0DECBCFDD52
:100C7200ECE5F1E0C9CF87DBE62DAE2EAFE6B0E0C2
:100C820076DBEA150895C3DDE7E9F1E0BDCF442440
:100C9200A8EEB3E08BC00A921A92FA926A937A9300
:100CA2008A939A93AA93BA93EA93FA93EFB7EA9341
:100CB2000895F801EF36A0E0FA070895A8DDECEEFA
:100CC200F1E0A2CF7CDBE62DAE2EA1CD1A930A93E2
:100CD200AA2D3FDBECEFF1E097CF99DDE7E3F2E0FD
:100CE20093CF75DDA3E0B0E061C0A0E35BDD88ECEB
:100CF20090E00197F1F708952A93AD85BE85EF85BF
:100D0200F88909950895E889F9893497E88BF98B70
:100D12000895AD85BE85EF85F88909950895A8895E
:100D2200B9891496ED91FD91EE83FF83AE81BF8167
:100D320008951DD0ED91FD91FA93EA931A930A93C7
:100D4200EDE7F5E0FA93EA9308955A934A933A93BA
:100D52002A931A930A9308955D814C813B812A81DB
:100D62001981088108950024EF0DF01D08950024D3
:100D7200AF0DB01D0895F195E195F0400895E89406
:100D8200F7FF02C0F8DF6894EA23FB230EF4F3DFD7
:100D92000895ED91FC91119708950590F491E02D3D
:100DA20008957A936A93FA93EA930895109639F024
:100DB200A89580ED97E00197F1F71197C9F708958B
:00000001FF
